:020000040800F2
:10000000C01E002049010008B11E0008F71C0008AE
:1000100000000000000000000000000000000000E0
:10002000000000000000000000000000B51E0008F5
:100030000000000000000000B31E0008B71E00080A
:100040005B0100085B0100085B0100085B01000820
:100050005B0100085B0100085B0100085B01000810
:10006000000000005B0100085B0100085B01000864
:100070005B0100085B010008000000005B01000854
:100080000000000000000000000000000000000070
:10009000451F0008000000005B0100085B0100082C
:1000A000000000005B0100080000000000000000EC
:1000B0005B0100085B010008000000000000000078
:1000C00000F002F800F030F80CA030C8083824180E
:1000D0002D18A246671EAB4654465D46AC4201D180
:1000E00000F022F87E460F3E0FCCB6460126334282
:1000F00000D0FB1AA246AB46334318473823000012
:10010000582300000023002400250026103A01D3C4
:1001100078C1FBD8520700D330C100D50B607047BF
:100120001FB51FBD10B510BD00F038FC1146FFF71C
:10013000F7FF02F061F800F050FC03B4FFF7F2FFA4
:1001400003BC00F0A7FC00000748804707480047B1
:10015000FEE7FEE7FEE7FEE7FEE7FEE704480549A7
:10016000054A064B70470000411F0008C100000807
:10017000C0180020C01E0020C01A0020C01A002095
:10018000FEB5054610460C46184373D0AE468C4665
:100190000020AD1A01469C4167D366460027012422
:1001A0003D46B61A9D4102D313463A462124654680
:1001B00076462F04360C3E432D0CB61A9D4104D3CF
:1001C000150C1B042B4312041034654676462F068B
:1001D000360A3E432D0AB61A9D4104D3150E1B0262
:1001E0002B4312020834654676462F0736093E43F4
:1001F0002D09B61A9D4104D3150F1B012B43120183
:10020000241D65467646AF07B6083E43AD08B61ACC
:100210009D4104D3950F9B002B439200A41C65467F
:100220007646EF0776083E436D08B61A9D411AD30D
:1002300092185B41641C16E00018764665464941F9
:10024000B71A9D410191009009D36046B11A9841B7
:100250008E468446009801990025401C6941DD07BF
:1002600052082A435B08641EE6D57246634603B013
:10027000F0BDFFE700200146C046C0462A4623469F
:10028000F5E701E004C0091F0429FBD28B0701D563
:100290000280801CC90700D00270704700290BD073
:1002A000C30702D00270401C491E022904D38307F1
:1002B00002D50280801C891EE3E70022EEE70022BF
:1002C000DFE7002203098B422CD3030A8B4211D3B0
:1002D00000239C464EE003460B433CD400224308D7
:1002E0008B4231D303098B421CD3030A8B4201D3C7
:1002F00094463FE0C3098B4201D3CB01C01A52415F
:1003000083098B4201D38B01C01A524143098B42AE
:1003100001D34B01C01A524103098B4201D30B0197
:10032000C01A5241C3088B4201D3CB00C01A5241BC
:1003300083088B4201D38B00C01A524143088B4281
:1003400001D34B00C01A5241411A00D2014652411A
:10035000104670475DE0CA0F00D04942031000D339
:100360004042534000229C4603098B422DD3030A8E
:100370008B4212D3FC22890112BA030A8B420CD39E
:10038000890192118B4208D3890192118B4204D3C7
:1003900089013AD0921100E08909C3098B4201D347
:1003A000CB01C01A524183098B4201D38B01C01A81
:1003B000524143098B4201D34B01C01A52410309F8
:1003C0008B4201D30B01C01A5241C3088B4201D3A7
:1003D000CB00C01A524183088B4201D38B00C01A54
:1003E0005241D9D243088B4201D34B00C01A52412B
:1003F000411A00D20146634652415B10104601D3B8
:100400004042002B00D54942704763465B1000D341
:10041000404201B50020C046C04602BD704770474B
:10042000704700000346CA02400D10B510430A157C
:1004300004D00124E4072043002A05DB0A4CA21A59
:1004400004D4D040FF2A00DD002010BD4A00002B5C
:1004500001D0012000E00020101801225205D042F6
:10046000F2D8C817C04310BD1E0400001F22030CA1
:1004700002D10F22000402D0030E03D004E00020BA
:10048000014670470002083A030F01D10001121F14
:10049000830F01D18000921E002801DB4000521E14
:1004A000120551184205C012411810467047C10F7D
:1004B000C90700D04042012292071143D6E701212B
:1004C0008907D3E7F0B50C46871A9C410D46861A7A
:1004D0009D4103D2C01BA141D21963410D0D1F0DD7
:1004E000C94EEC1BAE435CD07F057F0D0026002F6C
:1004F00051D02D05AC46A943DD020123ED0A1B05B1
:100500001D4320231B1B24D41746E7403818714194
:100510002F46E740CC199D402818314661410C0D0B
:1005200027D161449A4013D50023401C5941520001
:100530000ED14008400001224B005205D34207D3A0
:1005400005204007C14201D5B04900E0B04930461E
:10055000F0BD6B00002A00D001229A181F23203C16
:100560001B1B01D5002302E0E540281871410C0D4A
:10057000D7D0012424050919C407CD07400849082C
:10058000E40F28436144002CD5D00024401C614175
:100590009A40D0D1CDE76A05520DD9D1C90FC9070C
:1005A000D5E79C4D4E00002801D0012400E0002436
:1005B00034195F00002A01D0012600E00026BE1990
:1005C000954FAC420CD8AE420AD8B44206D00125B1
:1005D0006D05EC42BCD010461946F0BD9942FCD0E6
:1005E00000203946F0BDF0B51FB40C460F46811A05
:1005F0009F412546861A9D4106D20125ED076F4091
:10060000401ABC4152187B41210D1E0D8D1BAC467A
:100610007D4D8D437ED075056D0D7CD00D05AE46AC
:10062000AC431B031B0B794D52429D412023664670
:100630009B1B14D31746F7403818002600907441CE
:1006400060462F460741E41900989D4028186641EE
:1006500016D4714671189A4025D5012320E09318CD
:100660002A466A415200002B00D0521C1E23203E15
:100670009B1B002B61DD3541EE1728186641E8D53C
:10068000001876415B1C9A4000D3401C4B05F318C0
:100690001524E34010D3002B52D071467118D30FAC
:1006A000C01802D3491C05B0F0BD0123DB079A42F4
:1006B000F9D140084000F6E701225205B21801D1F5
:1006C000002853D00123CC0ADB029943891E002A5B
:1006D00008D1020C03D0020C0004103902E00246DB
:1006E000002020390023550B05D112020823550B99
:1006F00001D152010D23550C01D112011B1DD50C46
:1007000001D192009B1C150D01D152005B1C2025CC
:10071000EE1A01E02CE022E00546F5401543984032
:10072000CA1AE10769181305C918002ABBDA0320A1
:1007300040070818C10FC9070FE071466118B2E7FA
:10074000F10740080843711071444A000CD001239E
:100750005B059A42A7D2C90FC9070020A3E7490544
:10076000490D26D1002001E00028F4D100219AE7AC
:10077000284D6600002801D0012100E000217118F9
:100780005F00002A01D0012600E00026BE19224F9A
:10079000A94210D8AE420ED8B14208D001256D054D
:1007A000E94206D01946A802414010467BE79C4228
:1007B00001D0214677E70020394674E710B50C4692
:1007C0005C4005D50124E4076340FFF70CFF10BD32
:1007D000FFF778FE10BD30B40C465C4004D5012410
:1007E000E407634030BC6DE630BCFCE670B5012424
:1007F000E40761400D465D4002D4FFF763FE70BD23
:100800006340FFF7F0FE70BDFF0700000000F0FF3F
:100810000000F07F0000E0FF0000F87FF0B501234A
:100820000A0DDB0200249A43E4430025002A28D065
:100830005B1E9A4223D05B10D61AA64228DB721C9C
:1008400048D0342E18D20222142E2BD822D00B4698
:100850000D36B34001D100280FD00024701E0B4686
:100860008340DB0FF2412846551EA943002B03D0DD
:100870008918002C00D09143F0BD0124EEE79A4284
:1008800039D04A000243F7D0C90FC9072846F0BD46
:10089000002223E00122C30F400001D00024E2E740
:1008A0000124E0E70346133EB34011D00023741E39
:1008B0000746A740FC0FF2411746521E9043002CFA
:1008C000E5D0002B00D0521CC01969419043F0BD07
:1008D0000123ECE701220B0318430AD00023C90FC0
:1008E000C9072846002AF2D0002BF0D1054A11434F
:1008F000F0BD0123F3E70A0301D10028F8D000205E
:100900000149F0BD0000F03F0000F87FF8B5224C2F
:100910004E00069DA6420AD8A64201D1002806D163
:100920005E00A64203D8A6420AD1002A08D00D24B0
:10093000240425422CD02946002000F056F8F8BDAA
:100940000C461C430CD4994202D0EFF30080F8BD52
:10095000904202D0EFF30080F8BDEFF30080F8BDC5
:1009600009242407E5008B4206D0EFF30080A04362
:10097000591A06D2284304E0101A05D3EFF3008079
:10098000A04380F30088F8BDEFF30080A043F1E7B7
:10099000009500F041F8F8BD0000E0FF754600F05A
:1009A00045F8AE46050069465346C008C000854676
:1009B00018B020B5FFF7D2FB60BC00274908B64647
:1009C0000026C0C5C0C5C0C5C0C5C0C5C0C5C0C55E
:1009D000C0C5403D49008D46704710B50446C0462D
:1009E000C0462046FFF7A9FB10BDC80212D5480338
:1009F000400F002804D0C803C0430121884070473D
:100A0000EFF300800001000903210907084380F388
:100A1000008870470020704710B500200249029AF4
:100A200000F008F810BD00000000F87F0048704793
:100A30005C18002010B50C461107090F092904D0D5
:100A40000A290AD008290CD104E011460820FFF732
:100A5000CCFF06E0510606D501E0510601D5012084
:100A6000C007214610BDD10607D501010909CC08F0
:100A70004907000E0006044309E0410F2002490720
:100A8000000A0143200E00061D22D1410143084601
:100A9000E7E7000001491820ABBEFEE72600020090
:100AA000704770B58D180478401CA207920F01D1D1
:100AB0000278401C231106D10378401C03E006781D
:100AC000401C0E70491C521EF9D1002B15D0027823
:100AD0000C2634408A1A401C0C2C03D0A401121B93
:100AE0009B1C08E004782402121B401CF8E71478D1
:100AF0000C70491C521C5B1EF9D5A942D3D30020AF
:100B000070BD000070B5044600F0FAF80546601CA0
:100B100002D004480078241800F0F2F8401BA042EC
:100B2000FAD370BDDC12002010B50B4900220B680F
:100B30005A620A68136801242343136009684A6AE9
:100B40008242FCD3086A054A104203D10868400873
:100B50004000086010BD00001C18002011110000AA
:100B6000F8B5002303240125B8E032462E469E4006
:100B7000B446324079D00E79B607B60F012E01D0B7
:100B8000022E17D186682746B6465E00B74000960B
:100B90007646BE43B646CF68009EB740764637439A
:100BA000876046686746BE430F79FF06FF0F9F4088
:100BB000374347600E79F643B6070ED0C66827461E
:100BC000B4465E00B646B7406646BE43B4468F683C
:100BD0007646B74066463743C7600E79B607B60F0C
:100BE000022E14D1DE08B60036180096366A5F076A
:100BF000B446FE0E0F27B646B7406646BE43B4461F
:100C00000F697646B74066463743009E37620668EE
:100C10002746B4465E00B646B7406646BE430F79E7
:100C2000B446BF07BF0F7646B740664637430760F6
:100C30004E68B603B60F50D02B4F7E6B2E437E63AB
:100C40009F082A4EBF00BE190096B6680F27B4460B
:100C50009E07360FB646B7406646BE4305273F0798
:100C6000B446B84202D1002710E036E0204FB84227
:100C700001D101270AE01F4FB84201D1022705E048
:100C80001D4FB84201D1052700E006277646B74040
:100C900066463743009EB760184EB6684F68964365
:100CA000FF0200D51643154FBE60FE684F6896439D
:100CB000BF0200D51643114FFE607E684F68964311
:100CC000BF0300D516430D4F7E603E684F689643C4
:100CD000FF0300D51643094A16605B1C0A681646D6
:100CE000DA4000D041E7F8BD0010024000000140AA
:100CF0000004005000080050001C00500004014097
:100D00000148806870470000DC12002002488168BA
:100D10000278891881607047DC12002010B50848FD
:100D200000240168402211430160032000F00AF80A
:100D3000002801D0012401E000F026F8204610BD73
:100D40000020024070B504460D4D7D202978C0007A
:100D5000FFF7B7FA01460B480068FFF7B2FA00F058
:100D600095FB002809D1042C07D200222146401E01
:100D700000F022F800206C6070BD012070BD000002
:100D8000DC120020E81200200448416B01221143CC
:100D90004163816B0204114381637047001002407C
:100DA000002805DBC106C90E012088400149086002
:100DB0007047000000E100E010B501F0FBF910BD44
:100DC000F8B50E46050038D05E480068C007C00F71
:100DD000B04214D25B4C2068400840003043206091
:100DE000FFF78EFF074605E0FFF78AFFC11B564855
:100DF00081427AD82068C007C00FB042F4D1287869
:100E0000524C800705D5E068F0218843A968084363
:100E1000E0602878C00752D06868022806D003280E
:100E200007D0216801280AD0890504E021688903D8
:100E300001E021688901002903DB0120F8BD490791
:100E4000F9E7E168890889000143E160FFF758FF8D
:100E50000746686802280AD0032814D001281ED04B
:100E600029E0FFF74DFFC11B374881423DD8E068BC
:100E70000007800F0228F4D121E0FFF741FFC11BDA
:100E80003148814231D8E0680007800F0328F4D14F
:100E900015E0FFF735FFC11B2B48814225D8E068DC
:100EA0000007800F0128F4D109E0FFF729FFC11BDB
:100EB0002548814219D8E0680007800FF5D1214804
:100EC0000168C907C90FB14217D90168490849002B
:100ED00031430160FFF714FF074608E005E0FFF724
:100EE0000FFFC11B1848814201D90320F8BD1548E6
:100EF0000068C007C00FB042F1D12878400706D57E
:100F0000E068072109028843E9680843E06028781F
:100F1000000707D5E0680721C90288432969C9008D
:100F20000843E06000F01AF8E168094A0906090F71
:100F3000515CC8400749086007480068FFF702FF96
:100F4000F8BD00000020024088130000001002409D
:100F500018240008E8120020E012002070B51A4A98
:100F6000D3681A490C2018408D0004280CD04E007C
:100F7000082810D00C2810D050680004410F012020
:100F8000C003491C884070BD1068C00601D50846E2
:100F900070BD284670BD304670BD98020C4C000FE5
:100FA000205C1B029C0FD368641CDB0301D5314617
:100FB00003E01268D20600D4294601F0E2F8224686
:100FC0000023FFF7DDF870BD0010024000093D006E
:100FD00028240008F0B587B00E46054617461421B0
:100FE0006846FFF76CF90220002105220123120751
:100FF000174C019002910390002D18D0022D19D0AA
:10100000000204910090E06A1843E062E06A6946D9
:10101000C007C00F05901046FFF7A2FDE0687F21D2
:10102000090688433E433043E06007B0F0BDFF202F
:101030000130E6E70121490300910490E16A014390
:10104000E162E16A0140059169460248E4E7000077
:101050000010024000040050FEB505007ED0F74CA1
:10106000E7680C20E6680740012000040640287865
:10107000C00747D0082F05D00C2F0AD1012000044B
:10108000864206D1206880033CD568680028E5D0F8
:1010900038E0012069680004814203D121680143DE
:1010A000216011E0052301221B049204994221686A
:1010B00002D111432160F1E78143216021680140A1
:1010C0000091206890432060686800280DD0FFF7E9
:1010D00017FE009005E0FFF713FE0099401A642800
:1010E0007ED820688003F6D50CE0FFF709FE00905B
:1010F00005E0FFF705FE0099401A6428F0D8206843
:101100008003F6D4287880075DD5E868810604D589
:10111000226820210A43226088430923042F0DD02E
:101120000C2F01D1002E09D000283CD02168994312
:1011300001432160FFF7E4FD064628E021684907E6
:1011400001D500288AD061681F22120291432A69C2
:101150001202114361602168994300E091E101436B
:101160002160FFF7FBFEE16809060A0FB449895CBC
:10117000C840B4490860B4480068FFF7E3FD0028A0
:1011800074D120E0FFF7BCFD801B0228A8D820689E
:101190004007F7D560681F210902884329690902C1
:1011A000084360600FE02068400840002060FFF7BF
:1011B000A7FD064604E0FFF7A3FD801B02288FD899
:1011C00020684007F7D42878C00661D5002F0DD0DD
:1011D000A86900284BD02068FF210131084300E0B6
:1011E000C6E02060FFF78CFD06462DE020688005F4
:1011F00002D5A8690028A5D0606807214903884363
:10120000296A084360606068297F0002000A0906B5
:1012100008436060286A410B0120C003491C8840D4
:10122000E16809060A0F8649895CC840854908605B
:1012300085480068FFF786FD002817D128E0FFF7F2
:101240005FFD801B0228A1D820688005F7D5606863
:10125000072149038843296A084360606068297F41
:101260000002000A09060843606011E0E1E021681D
:10127000FF20013081432160FFF742FD064604E074
:10128000FFF73EFD801B022872D820688005F7D446
:1012900028786E4E000724D568690028306910D080
:1012A000012108433061FFF72BFD009005E0FFF7B7
:1012B00027FD0099401A02285AD830698007F6D5D0
:1012C0000FE0400840003061FFF71AFD009005E094
:1012D000FFF716FD0099401A022849D830698007A7
:1012E000F6D42878400765D500200290A06BC00096
:1012F00006D4A06B012109070843A06301200290D6
:1013000053480168C90511D4016882151143016071
:10131000FFF7F6FC009005E0FFF7F2FC0099401A99
:10132000642825D84A480068C005F5D5FF20AA687A
:101330000130824203D131690143316111E0012161
:101340008902002A07D005231B029A4203D1326981
:101350000A433261EFE73269824332613069884380
:101360003061A86800280FD0FFF7CAFC009007E0A2
:101370005EE0FFF7C5FC0099411A3648814257D814
:1013800030698005F5D50DE0FFF7BAFC009006E066
:10139000FFF7B6FC0099411A2E48814248D83069BF
:1013A0008005F5D40298002804D0A06B012109071C
:1013B0008843A063686A002865D00C2F4CD00126B2
:1013C00036060228206805D0B0432060FFF798FC5D
:1013D00005462FE0B0432060FFF792FC074604E08B
:1013E000FFF78EFCC01B022822D820688001F7D4AA
:1013F000E96AA86AE2680843296BFD231B049A4343
:1014000011430843E060206830432060FFF778FC18
:10141000054604E0FFF774FC401B022808D820684A
:101420008001F7D52FE0FFF76BFC401B022801D9A4
:101430000320FEBD20688001F5D424E000100240A6
:1014400018240008E8120020E0120020401002409A
:1014500000700040881300000128EAD0E0680121F4
:101460000904AA6A014091420BD10F218904EA6A5A
:101470000140914205D1032189050840296B88422A
:1014800001D00120FEBD0020FEBD0000094910B5BD
:10149000401E884201D9012010BD074C6061032124
:1014A000081F00F087FE0020A061072020610020B7
:1014B00010BD0000FFFFFF0000E000E0F0B50246B5
:1014C0002032137E012B1ED0012515760223537680
:1014D00006687468B3687027BC430F682743776059
:1014E0000068AC07A04205D0084CA04202D0084CCE
:1014F000A04204D180244968A343194381605576F2
:1015000000201076F0BD0220F0BD00000008014070
:101510000014014070B5050005D02C462034607ED3
:10152000002802D006E0012070BD00202076284669
:1015300000F010F802206076291D286800F00AFDEE
:101540000120A077A076E076207760776076002093
:1015500070BD000010B586B0044614216846FEF741
:10156000AEFE174A21681748914220D1426B0421F0
:101570000A434263C26A01231A43C262C06A0091ED
:1015800018400590022001900020029003900490E2
:10159000052069460007FFF7E3FA002211461420F0
:1015A000FFF70AFC1420FFF7FBFB06B010BD064A4C
:1015B0009142FAD1416B202211434163F5E70000CB
:1015C0000008014000100240001401400146203193
:1015D0004A7E012A01D00120704702224A76026821
:1015E000D36801210B43D36000688A07904205D07D
:1015F000074A904202D0074A904204D182685207BB
:10160000520F062A02D002680A4302600020704787
:101610000008014000140140F8B505460446203595
:10162000287E0026012817D001202876022068761F
:10163000226890687727FF23B8431B029843906085
:101640000868502838D00EDC20284FD006DC00284F
:101650004CD010281ED149E00220F8BD302845D0DA
:10166000402817D13AE060282ED0702819D00122E6
:101670001203801A0FD090420CD1CB684A68896857
:10168000206800F0A0FC20688168012292031143C9
:10169000816000E00126012068760020287630462F
:1016A000F8BDCB684A688968206800F08CFC216826
:1016B000886838438860EEE7CA684968206800F0A7
:1016C000FCFC5021206806E0CA684968206800F0E8
:1016D0002BFD6021206800F081FCDCE7CA684968C6
:1016E000206800F0EAFC40212068F4E72268014607
:1016F0001046F0E770B5007E012833D11A4C206AFD
:101700000221820701200026002A184D226A03DAEE
:101710008A432262287002E00A4322622E706978AE
:10172000002902D0012907D01BE0114909680A6885
:1017300002430A60687014E00D480021403800F050
:10174000C3FAA861FEF7BBFE00F0B2FDFEF76AFE29
:101750006969084B4A009852074A28785054491C36
:101760006961666270BD0000000801400000002051
:101770001C180020EC1200200C160020F8B50446BE
:101780000020264620360090307E0D4601280ED0DF
:1017900001203076002A0CD0042A19D0082A2AD039
:1017A0000C2A4ED00090002030760098F8BD022020
:1017B000F8BDEB6806CD083D206800F08FFC20687E
:1017C00082690C218A43826120688169AA680FE0DE
:1017D000EB6806CD083D206800F0B9FC20688169FF
:1017E000032292029143816120688169AA681202F2
:1017F00011438161D7E788CD287921688446086A3A
:10180000FF22013290430862C8690A6A800880009A
:101810003843F027B84367463F073F0E074305208C
:10182000400282430A20034018021043CF6108623D
:101830002068C1690C229143C1612068C1692A688E
:101840002CE02B6820689E466F682B7B016ABC46A3
:101850000122120391430162C169026A03273F0218
:10186000B94367463F020F430F2109038F4319070E
:10187000090C052339435B039A4373460A273B400F
:101880001B031343C16103622068C26903218902FB
:101890008A43C2612068C169AA6812021143C1610A
:1018A00081E770B5050005D02C462034607E002805
:1018B00002D006E0012070BD00202076284600F00E
:1018C0000FF802206076291D286800F043FB0120F4
:1018D000A077A076E076207760776076002070BDF4
:1018E0007047000070B504460026203405460029E4
:1018F00008D0042908D0082908D0607F012807D023
:10190000012070BDA07EF9E7E07EF7E7207FF5E7D4
:101910000220002908D004290CD008290FD06077B4
:101920000C292CD0012628E0A0762A68D36803432E
:10193000D3600AE0E0762868C268042303E02077D9
:101940002868C26808231A43C2600122286800F090
:101950002DFB0122286892070121904205D00A4AF6
:10196000904202D0094A904204D182685207520F35
:10197000062A02D002680A430260304670BD286819
:10198000C2681023DFE70000000801400014014096
:1019900070B50446006801690025C943890700291C
:1019A00015DBC168C943890711D4E91E0161012013
:1019B0002076206880698007204602D0FFF79AFED3
:1019C00004E000F09DF8204600F030F9257620680C
:1019D0000169C943490717D4C168C943490713D4EA
:1019E0000421C943016102202076206880698005B6
:1019F000800F204602D0FFF77DFE04E000F080F863
:101A0000204600F013F9257620680169C9430907CB
:101A100016D4C168C943090712D40821C94301611A
:101A2000042020762068C0698007204602D0FFF796
:101A300061FE04E000F064F8204600F0F7F8257637
:101A400020680169C943C90617D4C168C943C906DA
:101A500013D41021C9430161082020762068C06991
:101A60008005800F204602D0FFF744FE04E000F01E
:101A700047F8204600F0DAF8257620680169C94366
:101A8000C90708D1C168C943C90704D1891E0161CA
:101A9000204600F00BF920680169C943490609D4C2
:101AA000C168C943490605D44021C94301612046A4
:101AB00000F020F970BD000010B586B00446142176
:101AC0006846FEF7FCFB012120688907884213D194
:101AD0000A48C26A01210A43C262C06A00910840F2
:101AE00005900020022102900390019104910520AD
:101AF00069460007FFF734F806B010BD0010024039
:101B00007047F8B5064604462036307E00270D465D
:101B100001280ED001203076002A0CD0042A1BD0D8
:101B2000082A2FD00C2A3ED00127002030763846D4
:101B3000F8BD0220F8BD206800F058FA20688169DD
:101B40000822114381612068826904218A438261ED
:101B500020688169EA6812E0206800F05FFA206876
:101B600082690121C9020A438261206881690122D8
:101B700092029143816120688169EA6812021143EF
:101B80008161D2E7206800F062FA2068C16908220A
:101B90001143C1612068C26904218A43C26120687F
:101BA000C169EA6812E0206800F06CFA2068C16937
:101BB0000122D2021143C1612068C2690121890258
:101BC0008A43C2612068C169EA6812021143C16197
:101BD000ABE770B5050005D02C462034607E0028A8
:101BE00002D006E0012070BD00202076284600F0DB
:101BF0000FF802206076291D286800F0ABF901205B
:101C0000A077A076E076207760776076002070BDC0
:101C1000006801218907884204D10348816B0122B1
:101C200011438163704700000010024070470000BC
:101C300070B505462C4602202034002908D004291E
:101C40000BD008290ED0627F012A10D0012070BD70
:101C5000A27E012AFAD1A0760AE0E27E012AF5D11D
:101C6000E07605E0227F012AF0D1207700E060775E
:101C70000122286800F09AF90122286892070121C0
:101C8000904205D0074A904202D0074A904204D1C0
:101C900082685207520F062A02D002680A43026085
:101CA000002070BD00080140001401400449884232
:101CB00005D104484178012901D1022141707047C2
:101CC000DC1700200000002002460020002908D078
:101CD000042909D008290AD00C2901D11068006C08
:101CE00070471068406B70471068806B70471068D1
:101CF000C06B70477047FEE7F7B500240125174613
:101D00002646AD070CE00098005D00280BD06E63FE
:101D100001986100405AFEF707FF6E63641CA4B28D
:101D2000BC42F0D3FEBDFF20A5306863F0E70000A1
:101D300010B58AB00024049405940694079408947E
:101D4000214809940094019402941E49039401606F
:101D50001F218460416004611C494461C160FFF738
:101D6000D9FB002801D072B6FEE7012000030490E1
:101D700004A91548FFF750FC002801D072B6FEE711
:101D80001148FFF78EFD002801D072B6FEE70894D7
:101D900008A90D480994FFF791FB002801D072B6FD
:101DA000FEE7022000900120019002940022694683
:101DB00003940548FFF7E2FC002801D072B6FEE765
:101DC0000AB010BD00080140DC170020FFFF000032
:101DD00010B586B000240094164801940294039430
:101DE00004941349059401601F21846041600461DB
:101DF00011494461C160FFF78DFB002801D072B624
:101E0000FEE701200003009069460A48FFF704FC42
:101E1000002801D072B6FEE7049404A90548059491
:101E2000FFF74CFB002801D072B6FEE706B010BDEC
:101E3000001401401C180020FFFF000010B586B000
:101E400000240594012118480494009401940294FC
:101E50008907039412C0046084601449C46041601F
:101E60000838FFF7B6FE002801D072B6FEE70494EA
:101E700004A90D480594FFF721FB002801D072B694
:101E8000FEE76020009001940294002269460394CA
:101E90000548FFF736FE002801D072B6FEE702487B
:101EA000FFF70AFE06B010BD9C1700204903000092
:101EB000FEE77047704710B5FEF728FF10BD000021
:101EC00010B592B034216846FEF7F9F914210DA837
:101ED000FEF7F5F9194801680322D2029143C214B2
:101EE00089180160012102200391102100900491C2
:101EF000099040040B90000100240C900A9468465D
:101F0000FFF7AAF8002801D072B6FEE70F200D9067
:101F100003200E900F941094012111940DA8FEF748
:101F20004FFF002801D072B6FEE70022012109060A
:101F30001046FFF74FF812B010BD000000700040CF
:101F40007047000010B50248FFF722FD10BD0000E9
:101F5000DC17002070B5026801239B07114C124D5D
:101F6000984203D0A04201D0A84203D17026B243C8
:101F70004E683243984203D0A04201D0A84204D117
:101F800003231B029A43CB681A4380239A430B69AD
:101F90001A4302608A68C262096881620121416154
:101FA00070BD0000000801400014014010B5CB06D0
:101FB000DB0E0121046A99408C430462016A9A4055
:101FC0001143016210BD30B58468FF252D021B024C
:101FD0001343AC430B432343836030BD82687023BB
:101FE0009A430A4307210A438260704730B5026A68
:101FF000520852000262026A456883697024A34352
:102000009C080B68A40023430224A2438C6845600B
:102010001443836149684163046230BD30B5026A8C
:1020200010239A430262036A45688269732424027A
:10203000A2430C6824021443202293438A6845601B
:1020400012011A43846149688163026230BD30B570
:10205000026AFF2301339A430262026A4568C36938
:102060007024A3439C080B68A4002343012464024A
:10207000A2438C68456024021443C3614968C1636C
:10208000046230BD30B5026A01231B039A43026229
:10209000036A4568C26973242402A2430C682402BF
:1020A00014430122520393438A68456012031A4382
:1020B000C46149680164026230BD30B5036A046AD4
:1020C0006408640004628469F025AC431201224371
:1020D0000A24A3430B438261036230BD70B5046AD6
:1020E0006408640004628469056A0126B607B04288
:1020F00005D00B4EB04202D00A4EB04202D1A40825
:10210000A40000E001221443F02294431A07120EA7
:102110000A2322439D43194029438261016270BD15
:10212000000801400014014030B5036A1024A343A5
:1021300003628469036A0F252D031203AC43224313
:10214000A024A343090119438261016230BD70B527
:10215000046A1025AC4304628569046A03263602CA
:10216000B54312022A430F252D031B071B0CAA435C
:102170001343A0220901944311402143836101626A
:1021800070BDF8B5040C8BB2264682B25E430D0CCE
:102190001046370C58433604801900217941164601
:1021A0006E43370C36048019794126466E438919EF
:1021B000F8BD00008307FF22DB0E9A408907090E55
:1021C0009940002808DB830809489B001B18186801
:1021D00090430843186070470007000F08388308D1
:1021E00004489B001B18D86990430843D861704786
:1021F00000E400E000ED00E008B5FEF78FFDFFF71A
:102200005FFE2048C16A01221143C162C06A1040CA
:102210000090FFF78DFDFFF711FEFFF7D9FD0020BD
:1022200001218907486301461748FFF701FD164859
:102230004030FFF7CBF9144800214030FFF752FB44
:10224000124C134D114913481C316268FFF754FDBD
:102250002846FEF757FC10491048A268FFF74CFDCE
:102260002846FEF74FFC0E490E48E268FFF744FD92
:102270002846FEF747FC0C490C482269FFF73CFD55
:10228000E0E70000001002409C1700200000002042
:10229000102700003C030020CC040020EC070020A5
:1022A0007C0900209C0C00202C0E00204C110020EA
:1022B000F0B513B406460199FEF7B0FA04460D4690
:1022C00002460B4630460199FEF785FA064601980C
:1022D0001B4B0F4600280CDA0022304600F036F87F
:1022E0000CD90022174B3046394600F061F81DD258
:1022F00014E00022304600F029F808D20022124BE8
:1023000020462946FEF767FA04460D460EE00022F5
:102310000C4B3046394600F04BF807D800220A4BE8
:1023200020462946FEF74AFA04460D46019A6900FE
:102330004908D20FD2072046114303B0F0BD000078
:102340000000E0BF0000E03F0000F03F70B5012555
:102350000C002D051C4310D4EC4206D4AC420AD428
:10236000994200D070BD904270BDE94217D4EB4253
:1023700015D4994270BD894270BDEC4206D5AC427D
:10238000F9D58B4200D070BD824270BD6D004C000B
:10239000EC4204D25C00EC4201D28B4270BD034C93
:1023A00030B4FEF7B3FA30BC70BD00BF190016049C
:1023B00070B501251C002D050C4310D4EC4206D449
:1023C000AC420AD48B4200D070BD824270BDEB4259
:1023D00017D4E94215D48B4270BD9B4270BDEC42CC
:1023E00006D5AC42F9D5994200D070BD904270BD7F
:1023F0006D005C00EC4204D24C00EC4201D29942E8
:1024000070BD0FB4034C0CBC03BC30B4FEF77EFAB5
:1024100030BC70BD19001604000000000000000070
:102420000102030406070809030406080C1018201B
:10243000300000005424000800000020EC120000CE
:10244000A20A00089C270008EC120020D40B000010
:1024500004010008120001C3570104610110122792
:10246000236A1145023E0665021E066B02CF014F2C
:102470000432500432CE045008520216066D02CCCB
:102480000830040B06770C1004CD015104125218C9
:102490003251242108300418066A044138124F3C96
:1024A0009251046005500232065C30044F02D02085
:1024B000410830043306501061041004CF014E1857
:1024C000C104811410044D02D12032D108810410BE
:1024D00008B61E6502D4014A04524B0850044A0251
:1024E000D308210C100838064A02D5014804F249E5
:1024F0000432D614724808610C1004D601471472D5
:102500004804413C70044802D72CA138A154524AD7
:1025100004300449023978412C32D46C411092D4F1
:102520009C52D43061BC72D3C8124B0C21043006CB
:102530004D02D2014C0412D10410041A066910365F
:102540004D1812190C65389404B51E6BB8F251047D
:1025500025B4700417066C0825E012CF1425E0306E
:102560001AB4016902B5016602B7016302BA0161DA
:1025700002BD015F02BF015E02C09410064402DC8E
:1025800001430410084202DE014002DD04100AE0AB
:10259000013E02DF013D02E1043004E2013A041091
:1025A00004E3013B0410083802E5012102FC041297
:1025B000FD08200B64061F0276060A0214020412AC
:1025C000090C10140B02160207027A0605021B0200
:1025D00000028106EB01392E10062202FB012408BD
:1025E00032230412FD103008EB013202EE01301CE0
:1025F00052FE4E9AFCB801670102FF01020152022D
:1026000005378F18100B23851107027B0608027C03
:102610000607021F44180609021702085612080886
:1026200010061F02FF017B18211030047D060624CE
:10263000121E1421183A097A212C921720320614FE
:10264000300407021808920604411C3004190205E0
:102650001C4108210C2160320518321A0432040C86
:102660001219342114121B1002111A0452191841A4
:102670002063031F106144411C52024021E00116F7
:102680004432034412190841142134210C1218BE9B
:10269000A17C2110B218D22104B205EA7218D641E9
:1026A0001C167B1436190E3205207219347205502F
:1026B00081581607461C0A0D0212020F021302254A
:1026C00000041C043A02E4CE033EE50C0441041E5F
:1026D000E41C043004590628082104325A0C323B09
:1026E000105C04E21E3B3404612C1E2306042144CA
:1026F00050042F02EF2430044806393012490812E2
:10270000E35C21241C0475062364043E201204812A
:1027100004211032220812FE0425F236FEF645FE90
:102720003A002A321E04740401021D34650476192D
:102730008A4005030280062221044382063A4B8325
:10274000064470048406FC7A3E22B0043EFBBC04BE
:102750005223041C049E06E3C80461100EFFFAB065
:102760000401C7020D37B0040DFF60090DFF6009B9
:102770000DFF60090DFFB0040DFF60090DFF60093A
:102780000DFF60090DFF600901FF020D55B0042D1A
:0C279000CB127E046E0903002000000044
:04000005080000C12E
:00000001FF
